:100000000C94E2000C940A010C940A010C940A016D
:100010000C940A010C940A010C940A010C940A0134
:100020000C940A010C940A010C940A010C940A0124
:100030000C940A010C940A010C940A010C940A0114
:100040000C94AB040C940A010C941B050C94F5045D
:100050000C940A010C940A010C940A010C940A01F4
:100060000C944D050C940A0164756D70696E6720DF
:10007000617320432D636F64652061727261792022
:1000800072656164792C20323032302D4A414E2D18
:1000900030340A007869616F6C6162612C20323003
:1000A00031342D4A414E2D31340020427974650A95
:1000B00000204B626974203D2000446576696365C9
:1000C0002041444452203D2030780032344378208F
:1000D00049324320454550524F4D20726561646559
:1000E00072207265616479212072203D2052656121
:1000F0006420636F6D6D616E64002D2D2D2D002FBA
:100100002F2D2D2D2D2D2D2D2D2D2D2D2D2D002057
:10011000202F2F204F464653455400202020002FEB
:100120002F202000636F6E737420636861722A2031
:10013000636F6E737420454550524F4D5F44415478
:10014000415B5D2050524F474D454D203D207B0087
:10015000202F2F203030303000202F2F2030303013
:10016000303000202F2F2030303030303000202F22
:100170002F203030303030303000000000002500BB
:1001800028002B00040404040404040402020202F4
:10019000020203030303030301020408102040804A
:1001A00001020408102001020408102000000008C9
:1001B000000201000003040700000000000000002E
:1001C0006C06B40911241FBECFEFD4E0DEBFCDBF53
:1001D00022E0AEE3B1E001C01D92A23CB207E1F71C
:1001E00011E0A0E0B1E0E8E4F8E102C005900D9272
:1001F000AE33B107D9F710E0C1EED0E004C02197CB
:10020000FE010E94160AC03ED107C9F70E94F806F7
:100210000C94170C0C94000090E0FC01E455FE4F88
:100220002491FC01E856FE4F3491FC01EC57FE4F3F
:10023000E491EE23B1F0222339F02330E9F090F479
:10024000213001F1223011F1F0E0EE0FFF1FE658EE
:10025000FE4FA591B4918FB7F894EC913E2B3C934F
:100260008FBF08952730A9F02830C9F0243061F7F6
:10027000809180008F7D03C0809180008F77809374
:100280008000E2CF84B58F7784BDDECF84B58F7DCB
:10029000FBCF8091B0008F778093B000D5CF809155
:1002A000B0008F7DF9CF0895089510920D0210923D
:1002B0000C0210920B0210920A021092090281E0C5
:1002C000809308021092070282E10E940C0183E1F0
:1002D0000E940C01E9EBF0E080818E7F80838081B9
:1002E0008D7F808388E48093B80085E48093BC0090
:1002F00083E591E0909306028093050284E591E006
:1003000090930402809303020895089580910C0253
:1003100090910D02891B990B0895AF92BF92CF92D5
:10032000DF92EF92FF920F931F93CF93DF936C01B5
:100330007B018B01040F151FEB015E01AE18BF0896
:10034000C017D10759F06991D601ED91FC91019048
:10035000F081E02DC6010995892B79F7C501DF9160
:10036000CF911F910F91FF90EF90DF90CF90BF90B2
:10037000AF900895FC01538D448D252F30E0842FDC
:1003800090E0821B930B541710F0CF9608950197BD
:100390000895FC01918D828D981761F0A28DAE0FAA
:1003A000BF2FB11D5D968C91928D9F5F9F73928F31
:1003B00090E008958FEF9FEF08952FB7F894809104
:1003C000FF0190910002A0910102B09102022FBFA3
:1003D0008093160290931702A0931802B09319020B
:1003E0008EE092E00E94C90197FF26C02FB7F894D3
:1003F0008091FF0190910002A0910102B091020250
:100400002FBF40911602509117026091180270910F
:100410001902841B950BA60BB70B40911202509149
:100420001302609114027091150284179507A607B4
:10043000B707B0F28FEF9FEF0895FC01918D828D89
:10044000981731F0828DE80FF11D858D90E00895A9
:100450008FEF9FEF0895FC01918D228D892F90E001
:10046000805C9F4F821B91098F73992708958EE0BE
:1004700092E00E942B0221E0892B09F420E0822FD8
:10048000089580E090E0892B29F00E9437028111C5
:100490000C9400000895FC01A48DA80FB92FB11D84
:1004A000A35ABF4F2C91848D90E001968F739927AA
:1004B000848FA689B7892C93A089B1898C91837088
:1004C00080648C93938D848D981306C00288F38981
:1004D000E02D80818F7D80830895EF92FF920F93AE
:1004E0001F93CF93DF93EC0181E0888F9B8D8C8DE0
:1004F00098131AC0E889F989808185FF15C09FB7D4
:10050000F894EE89FF896083E889F9898081837096
:10051000806480839FBF81E090E0DF91CF911F9145
:100520000F91FF90EF900895F62E0B8D10E00F5F66
:100530001F4F0F731127E02E8C8D8E110CC00FB63C
:1005400007FCFACFE889F989808185FFF5CFCE01D4
:100550000E944B02F1CFEB8DEC0FFD2FF11DE35A02
:10056000FF4FF0829FB7F8940B8FEA89FB89808157
:100570008062CFCF0F931F93CF93DF938C01D0E096
:10058000C0E0F801EC0FFD1F6491662341F08EE09E
:1005900092E00E946D02892B11F02196F2CFCE01DC
:1005A000DF91CF911F910F910895CF93DF93EC01CD
:1005B000888D8823B9F0AA89BB89E889F9898C914B
:1005C00085FD03C0808186FD0DC00FB607FCF7CF07
:1005D0008C9185FFF2CF808185FFEDCFCE010E9407
:1005E0004B02E9CFDF91CF91089585ED8093BC0058
:1005F0008091BC0084FDFCCF1092090208952091E7
:100600005E01260F3327331F21323105ECF4209190
:100610000902FC0190E080E0243069F082E0089556
:10062000A0915E012191AC01425C5E4FA40FB52FF9
:10063000B11D2C930196861798F380915E01680F87
:1006400060935E0180E0089581E008950895E0914F
:100650000D0280910C02E81730F4F0E0EF57FE4FE6
:10066000808190E008958FEF9FEF089590910D02A3
:1006700080910C022FEF3FEF981748F4E92FF0E03C
:10068000EF57FE4F208130E09F5F90930D02C9012C
:100690000895CF92DF92EF92FF920F931F93CF9323
:1006A000DF937C01CB018A012091E601222389F0AE
:1006B000EB016B01C40ED51ECC15DD0569F0699107
:1006C000D701ED91FC910190F081E02DC7010995D2
:1006D000F3CF642F0E94FF02C801DF91CF911F91D9
:1006E0000F91FF90EF90DF90CF900895CF93DF931D
:1006F0001F92CDB7DEB769832091E6012223F9F07E
:1007000020910A02203258F021E030E0FC013383CE
:10071000228390E080E00F90DF91CF910895809147
:100720000B02E82FF0E0EB53FE4F998190838F5F2F
:1007300080930B0280930A0281E090E0ECCF61E0AD
:10074000CE0101960E94FF02F7CF90E080E008956D
:10075000FC0101900020E9F73197AF01481B590BCC
:10076000BC018EE092E00C948D01CF93DF930E9448
:10077000BA02EC018AE291E00E94A8038C0F9D1F4F
:10078000DF91CF9108958F929F92AF92BF920F9376
:100790001F93CF93DF93CDB7DEB7A1970FB6F89431
:1007A000DEBF0FBECDBF19A2423008F44AE08E0171
:1007B0000F5D1F4F842E912CB12CA12CA50194010B
:1007C0000E94F409E62FB901CA01EA30F4F4E05DB1
:1007D000D801EE938D01232B242B252B79F790E064
:1007E00080E0109719F0CD010E94A803A1960FB6E2
:1007F000F894DEBF0FBECDBFDF91CF911F910F9157
:10080000BF90AF909F908F900895E95CE1CFCF9219
:10081000DF92EF92FF92CF93DF936B017C016DE249
:100820008EE092E00E946D02EC0166277727CB01F3
:100830006C197D098E099F094AE00E94C3038C0F41
:100840009D1FDF91CF91FF90EF90DF90CF900895A3
:10085000CF93DF938FEF90E00E94BA021092F901DC
:100860001092F801C091F801D091F901C031D10581
:10087000B4F48AEF90E00E94BA028DE291E02F97E3
:1008800011F48AE291E00E94A8038091F80190910E
:10089000F90101969093F9018093F801E3CFDF917C
:1008A000CF9108958BEC90E00E94B5038AEB90E025
:1008B0000E94BA0240E160E570E080E090E00E94B2
:1008C000C3038AE291E00E94A8034AE060E170E07D
:1008D00080E090E00E94C30381EB90E00E94BA02A6
:1008E0004AE060E078E080E090E00E94C3038AEA9A
:1008F00090E00E94B50384E990E00E94B50388E689
:1009000090E00C94B5030F931F93CF93DF93EC010A
:1009100088819981009759F02A813B8126173707F2
:1009200030F081E0DF91CF911F910F9108958B01FD
:100930006F5F7F4F0E94410B009759F09983888326
:100940001B830A832C813D81232B59F7FC011082E4
:10095000E8CF80E0E7CF1F920F920FB60F921124DD
:100960002F933F938F939F93AF93BF938091FF01FA
:1009700090910002A0910102B09102023091FE011B
:1009800023E0230F2D3758F50196A11DB11D2093AB
:10099000FE018093FF0190930002A0930102B093A7
:1009A00002028091FA019091FB01A091FC01B091AB
:1009B000FD010196A11DB11D8093FA019093FB01E9
:1009C000A093FC01B093FD01BF91AF919F918F91D6
:1009D0003F912F910F900FBE0F901F90189526E812
:1009E000230F0296A11DB11DD2CF1F920F920FB6F9
:1009F0000F9211242F933F934F935F936F937F93A5
:100A00008F939F93AF93BF93EF93FF938EE092E00A
:100A10000E944B02FF91EF91BF91AF919F918F91F7
:100A20007F916F915F914F913F912F910F900FBEEA
:100A30000F901F9018951F920F920FB60F921124CE
:100A40002F938F939F93EF93FF93E0911E02F0916A
:100A50001F028081E0912402F091250282FD1BC0DB
:100A60009081809127028F5F8F73209128028217D7
:100A700041F0E0912702F0E0E25FFD4F958F809317
:100A80002702FF91EF919F918F912F910F900FBEB1
:100A90000F901F9018958081F4CF1F920F920FB680
:100AA0000F9211242F933F934F935F936F937F93F4
:100AB0008F939F93AF93BF93EF93FF938091B90070
:100AC000887F803609F44AC0F0F5883209F4A7C05F
:100AD00018F5803109F49BC0B8F4882309F4F9C0F3
:100AE000883009F494C0FF91EF91BF91AF919F912D
:100AF0008F917F916F915F914F913F912F910F90C7
:100B00000FBE0F901F901895883109F488C080326D
:100B100051F78093C40114C0803409F49DC040F49F
:100B20008033B9F38833F9F68093C40185ECB0C003
:100B3000803509F485C0883509F496C0883499F663
:100B40000E94F502D0CF883909F48CC038F5883777
:100B500029F050F4883611F0803729F683E080932D
:100B600009021092800157C0883809F47BC080398F
:100B700019F0803809F0B7CF80918001803208F0F9
:100B800071C0E091800181E08E0F8093800180919F
:100B9000BB00F0E0E05AFE4F80833DC0803B39F05F
:100BA000E0F4803A09F479C0883A09F09CCF84E0F7
:100BB0008093090210925F0110925E01E09105029C
:100BC000F0910602099580915E0181110FC081E0CC
:100BD00080935E0110923E0109C0803C09F4A6CFCB
:100BE000883C09F4A3CF883B09F07DCFE0915F01F9
:100BF00081E08E0F80935F01F0E0E25CFE4F808128
:100C00008093BB0090915F0180915E0129C080912B
:100C1000A1018093BB0085EC8093BC0064CF9091D0
:100C2000C3018091C201981758F5E091C30181E09A
:100C30008E0F8093C301F0E0EE55FE4F8081E9CF27
:100C4000E091C30181E08E0F8093C3018091BB00CE
:100C5000F0E0EE55FE4F80839091C3018091C20178
:100C60009817C8F285E8D8CFE091C30181E08E0FD4
:100C70008093C3018091BB00F0E0EE55FE4F80836E
:100C80008091080281115CCF81E08093070284EAA1
:100C90008093BC001092090226CF85EC8093BC00A3
:100CA0001092090280918001803230F4E09180013D
:100CB000F0E0E05AFE4F10826091800170E0E09118
:100CC0000302F091040280E691E009951092800100
:100CD0000ACF1092C40134CF109211021092100268
:100CE00088EE93E0A0E0B0E08093120290931302AC
:100CF000A0931402B09315022AE031E030930F0262
:100D000020930E0225EC30E030931B0220931A0250
:100D100024EC30E030931D0220931C0220EC30E0E4
:100D200030931F0220931E0221EC30E03093210209
:100D30002093200222EC30E0309323022093220201
:100D400026EC30E0309325022093240210922702F3
:100D5000109228021092290210922A021092AE02DA
:100D60001092AD028093AF029093B002A093B102B3
:100D7000B093B2028CE191E09093AC028093AB020D
:100D80001092B9021092B8021092BB021092BA02ED
:100D90001092BD021092BC0270E060E088EB92E01D
:100DA0000E9483042091B8023091B902811116C0CB
:100DB0002115310519F0C9010E94B80A1092B90233
:100DC0001092B8021092BD021092BC021092BB02A7
:100DD0001092BA0280E58093B70208951092BD0286
:100DE0001092BC026CE271E0C9010E94100CF2CFBB
:100DF000CF93DF93CDB7DEB728970FB6F894DEBF59
:100E00000FBECDBF789484B5826084BD84B5816007
:100E100084BD85B5826085BD85B5816085BD8091C5
:100E20006E00816080936E0010928100809181003D
:100E30008260809381008091810081608093810035
:100E4000809180008160809380008091B1008460F7
:100E50008093B1008091B00081608093B000809158
:100E60007A00846080937A0080917A008260809317
:100E70007A0080917A00816080937A0080917A0074
:100E8000806880937A001092C1000E945501E09121
:100E90001E02F0911F0282E08083E0911A02F0911D
:100EA0001B021082E0911C02F0911D0280E1808300
:100EB00010922602E0912202F091230286E08083C4
:100EC000E0912002F0912102808180618083E09195
:100ED0002002F0912102808188608083E0912002CD
:100EE000F0912102808180688083E0912002F0915E
:100EF000210280818F7D80830E9452040E945501CF
:100F0000EE24EA94FF24F39432E0932E95EEB92E6A
:100F100025ECA22E8EE092E00E942B02892B09F490
:100F200016C21A8219821C821B821E821D8270E0E8
:100F300060E0CE0101960E94830429813A818111EB
:100F40002EC02115310519F0C9010E94B80A1A8274
:100F500019821E821D821C821B820E94DD0197FD68
:100F600026C08A30910519F18F8318860D811E8164
:100F70000F5F1F4FB801CE0101960E9483048823A2
:100F800061F329813A818D819E81BE01695F7F4F26
:100F9000820F931F0E94100C1E830D83DECF1E82D2
:100FA0001D826CE271E0C9010E94100CD6CF8091C5
:100FB000B8029091B902009709F46AC069817A81F8
:100FC0006115710509F462C04091BA025091BB02EB
:100FD0002D813E814217530708F458C00E94100C1F
:100FE0008D819E819093BD028093BC021E821D82E2
:100FF00089819A81009711F00E94B80A8091BC0201
:101000009091BD02892B09F4A2C16FE271E0809139
:10101000B8029091B9020E94070C892B09F097C180
:101020000E9452040E9428048FE191E00E94BA02BB
:101030001092F9011092F8018091F8019091F90154
:1010400040970CF041C081E391E00E94A8036091B9
:10105000F8017091F901072E000C880B990B40E103
:101060000E94C3038091F8019091F9010F973CF51C
:101070008BE191E00E94BA028091F8019091F90110
:1010800001969093F9018093F801D6CF0E94B80A97
:1010900089819A819093B9028093B8028B819C8157
:1010A0009093BB028093BA028D819E819093BD0282
:1010B0008093BC021A8219821C821B8297CF8FE018
:1010C00091E00E94B503D8CF0E94280484E291E009
:1010D0000E94B5031092F9011092F801D12CC12C95
:1010E0008EE2882E8091F8019091F901811528E017
:1010F00092070CF022C18F709927892B21F483E38A
:1011000091E00E94A8036091F8011091F901177015
:101110000091B702012BF092E6010093E5011092D5
:101120000B0210920A028BEA92E00E9476039091E1
:101130000A029132D8F5809109028111FCCF909278
:101140000902F0920802E092C4011092C301909348
:10115000C201A5ECB1E0E2EAF1E09813A8C0109258
:10116000A1018091A101000F082B0093A1018091A2
:101170000702813009F09FC0109207028091A101FF
:101180008093BB008091BC0083FDF8CFA092BC008F
:10119000809109028230E1F38091C4018F3F31F0E8
:1011A0008091C401803211F08091C40110920B0231
:1011B00010920A021092E6018091B702182B8091DA
:1011C00009028111FCCFF0920902F0920802E0922C
:1011D000C4011092C3011092C201F092A10180914A
:1011E000A101110F182B1093A101809107028130EA
:1011F00009F064C0109207028091A1018093BB00A6
:101200008091BC0083FDF8CFA092BC0080910902C0
:101210008130E1F38091C30191E0811102C090918E
:10122000C301E2EAF1E0A1E8B1E080E0891349C03E
:1012300010920D0280930C0210E0882329F08BEAB3
:1012400092E00E943603182F86E391E00E94A803E3
:10125000103120F481E391E00E94A803612F70E037
:1012600090E080E040E10E94C30389E391E00E94A6
:10127000A803F601E951FE4F80EE810F803628F178
:1012800080820091F8011091F901C8018F709927AF
:101290000F97E9F08FEFC81AD80A8091F801909162
:1012A000F90101969093F9018093F8011BCF2D91DC
:1012B00021938F5F52CFB092BC006ACFB092BC0036
:1012C000A5CF21912D938F5FB1CF1083DACF0F304F
:1012D000110521F48EE691E00E94BA02C801409700
:1012E000803F910520F483E691E00E94BA02C80194
:1012F0009A9581159F40D0F489E591E00E94BA0249
:10130000B801110F880B990B40E10E94C30384E3DD
:1013100091E00E94A80387EE91E00E94A8038BE26F
:1013200091E00E94A803D12CC12CB7CF011580E118
:10133000180734F380E591E0E1CF8BE391E00E9460
:10134000A8038AE291E00E94A8030E94280480E09A
:1013500090E0892B09F4DECD0E943702882309F43E
:10136000D5CD0E940000D2CD8091B8029091B902F3
:10137000009711F00C94B80A08952F923F924F9263
:101380005F926F927F928F929F92AF92BF92CF9215
:10139000DF92EF92FF920F931F93CF93DF93CDB71E
:1013A000DEB7CA1BDB0B0FB6F894DEBF0FBECDBF96
:1013B00009942A88398848885F846E847D848C8467
:1013C0009B84AA84B984C884DF80EE80FD800C8170
:1013D0001B81AA81B981CE0FD11D0FB6F894DEBF53
:1013E0000FBECDBFED010895A1E21A2EAA1BBB1BB3
:1013F000FD010DC0AA1FBB1FEE1FFF1FA217B307E1
:10140000E407F50720F0A21BB30BE40BF50B661FF6
:10141000771F881F991F1A9469F7609570958095BA
:1014200090959B01AC01BD01CF010895EE0FFF1F08
:101430000590F491E02D09940F931F93CF93DF93C0
:101440008230910510F482E090E0E091C002F091CA
:10145000C10230E020E0B0E0A0E0309799F421151F
:10146000310509F44AC0281B390B24303105D8F561
:101470008A819B816115710589F1FB0193838283C8
:10148000FE0111C040815181028113814817590723
:10149000E0F04817590799F4109761F012960C93F1
:1014A000129713961C933296CF01DF91CF911F9123
:1014B0000F9108950093C0021093C102F4CF21153B
:1014C000310551F04217530738F0A901DB019A01A9
:1014D000BD01DF01F801C1CFEF01F9CF9093C10247
:1014E0008093C002CDCFFE01E20FF31F8193919351
:1014F0002250310939832883D7CF2091BE02309101
:10150000BF02232B41F4209102013091030130935B
:10151000BF022093BE0220910001309101012115EC
:10152000310541F42DB73EB74091040150910501BA
:10153000241B350BE091BE02F091BF02E217F307C6
:10154000A0F42E1B3F0B2817390778F0AC014E5F33
:101550005F4F2417350748F04E0F5F1F5093BF02AF
:101560004093BE02819391939FCFF0E0E0E09CCF47
:10157000CF93DF930097E9F0FC0132971382128238
:10158000A091C002B091C102ED0130E020E01097BF
:10159000A1F420813181820F931F2091BE023091EE
:1015A000BF022817390709F061C0F093BF02E0932A
:1015B000BE02DF91CF910895EA01CE17DF07E8F56B
:1015C0004A815B819E0141155105B1F7E901FB8319
:1015D000EA8349915991C40FD51FEC17FD0761F4B7
:1015E000808191810296840F951FE90199838883F8
:1015F000828193819B838A83F0E0E0E012968D9153
:101600009C9113970097B9F52D913C911197CD01BD
:101610000296820F931F2091BE023091BF022817BD
:10162000390739F6309751F51092C1021092C00275
:10163000B093BF02A093BE02BCCFD383C2834081CC
:101640005181840F951FC817D90761F44E5F5F4F12
:1016500088819981480F591F518340838A819B81DA
:10166000938382832115310509F0B0CFF093C10235
:10167000E093C0029ECFFD01DC01C0CF1382128235
:10168000D7CFB0E0A0E0E7E4FBE00C94BF098C0109
:10169000009751F4CB010E941C0A8C01C801CDB700
:1016A000DEB7E0E10C94DB09FC01E60FF71F9C01BB
:1016B00022503109E217F30708F49DC0D901CD91FA
:1016C000DC911197C617D70798F0C530D10530F3D4
:1016D000CE0104978617970708F3C61BD70B2297EE
:1016E000C193D1936D937C93CF010E94B80AD6CF5A
:1016F0005B01AC1ABD0A4C018C0E9D1EA091C0026C
:10170000B091C102512C412CF12CE12C109731F5F4
:101710008091BE029091BF028815990509F05CC0C6
:101720004616570608F058C08091000190910101BB
:10173000009741F48DB79EB7409104015091050187
:10174000841B950BE817F90708F055C0F093BF020A
:10175000E093BE02F90171836083A0CF8D919C91CB
:10176000119712966C90129713967C901397A81568
:10177000B90559F56C0142E0C40ED11CCA14DB0452
:1017800020F1AC014A195B09DA011296159780F035
:101790006282738251834083D9016D937C93E114FB
:1017A000F10471F0D7011396FC93EE93129776CF64
:1017B00022968C0F9D1FF90191838083F301EFCF57
:1017C000F093C102E093C00269CF4816590608F4AD
:1017D0002C017D01D3019ACFCB010E941C0A7C0110
:1017E000009749F0AE01B8010E94FE0BC8010E94AB
:1017F000B80A870153CF10E000E050CFFB01DC01B5
:1018000002C001900D9241505040D8F70895FB015D
:10181000DC018D91019080190110D9F3990B089585
:10182000FB01DC0101900D920020E1F7089510E02A
:10183000C1EED0E004C0FE010E94160A2196C23E0D
:08184000D107C9F7F894FFCFAE
:101848000000C2028000000000006D028D01BA0194
:10185800D5022B02C9011D020000000076034903CE
:10186800A50326038601360327030D0A002D0072FF
:0E1878000030002020003078002C007D3B0066
:103800000C94341C0C94511C0C94511C0C94511CA1
:103810000C94511C0C94511C0C94511C0C94511C74
:103820000C94511C0C94511C0C94511C0C94511C64
:103830000C94511C0C94511C0C94511C0C94511C54
:103840000C94511C0C94511C0C94511C0C94511C44
:103850000C94511C0C94511C0C94511C0C94511C34
:103860000C94511C0C94511C11241FBECFEFD4E0BA
:10387000DEBFCDBF11E0A0E0B1E0E4EAFFE302C0AB
:1038800005900D92A230B107D9F712E0A2E0B1E0A5
:1038900001C01D92AD30B107E1F70E94361D0C94B6
:1038A000D01F0C94001C982F9595959595959595FE
:1038B000905D8F708A307CF0282F295A8091C0004B
:1038C00085FFFCCF9093C6008091C00085FFFCCFA0
:1038D0002093C6000895282F205DF0CF982F809167
:1038E000C00085FFFCCF9093C6000895EF92FF9231
:1038F0000F931F93EE24FF2487018091C00087FD62
:1039000017C00894E11CF11C011D111D81E4E8168B
:1039100082E4F8068FE0080780E0180770F3E09172
:103920000401F091050109958091C00087FFE9CF5E
:103930008091C6001F910F91FF90EF9008950E9413
:10394000761C982F8091C00085FFFCCF9093C60015
:1039500091362CF490330CF09053892F089597559D
:10396000892F08951F930E949F1C182F0E949F1C4F
:103970001295107F810F1F910895882351F0982F81
:1039800091508091C00087FFFCCF8091C6009923A1
:10399000B9F708951F93182F0E94761C803249F0C2
:1039A000809103018F5F809303018530C1F01F91E7
:1039B00008958091C00085FFFCCF84E18093C6000C
:1039C0008091C00085FFFCCF1093C6008091C0009D
:1039D00085FFFCCF80E18093C6001F910895E091A0
:1039E0000401F091050109951F9108950E94761C2C
:1039F000803241F0809103018F5F80930301853015
:103A000081F008958091C00085FFFCCF84E1809310
:103A1000C6008091C00085FFFCCF80E18093C60086
:103A20000895E0910401F09105010995089510921F
:103A30000A028823D1F090E040E951E02D9A28EE67
:103A400033E0FA013197F1F721503040D1F72D984A
:103A500028EE33E0FA013197F1F721503040D1F7E9
:103A60009F5F981758F380930A0208953F924F92F0
:103A70005F926F927F928F929F92AF92BF92CF92FE
:103A8000DF92EF92FF920F931F93CF93DF9300008B
:103A900083E38093C4001092C50088E18093C10045
:103AA00086E08093C2005098589A259A81E00E943F
:103AB000171D44E1F42E3EE1E32E24E9D22E96E0D8
:103AC000C92E80E1B82EAA24A39401E4902E16E515
:103AD000812EB2E57B2EA0E26A2EF9E45F2EE3E5AB
:103AE0004E2E70E5372E0E94761C8033B1F1813363
:103AF00009F441C0803409F479C0813409F48CC0E0
:103B0000823471F1853409F47BC0803531F182351E
:103B100021F1813511F1853509F48DC0863509F41F
:103B20009DC0843609F4AEC0843709F41BC18537C3
:103B300009F485C1863709F47AC0809103018F5F4B
:103B400080930301853079F6E0910401F09105013D
:103B500009950E94761C803351F60E94F61CC3CF53
:103B600093E18091C00087FFFCCF8091C60099232C
:103B7000A1F39150F6CF0E94761C8032F1F680912D
:103B8000C00085FFFCCFF092C6008091C00085FF89
:103B9000FCCF9092C6008091C00085FFFCCF809240
:103BA000C6008091C00085FFFCCF7092C600809156
:103BB000C00085FFFCCF6092C6008091C00085FFE9
:103BC000FCCF5092C6008091C00085FFFCCF409290
:103BD000C6008091C00085FFFCCF3092C600809166
:103BE000C00085FFFCCFB092C6007DCF0E94761C3E
:103BF000863808F4B2CF0E94761C0E94F61C73CF60
:103C000094E08091C00087FFFCCF8091C60099238B
:103C100009F4A3CF9150F5CF0E94761C8038D1F0E3
:103C2000813861F1823809F499C0883979F080E0EF
:103C30000E94CA1C58CF0E94761C809306010E94E5
:103C4000761C809307010E94F61C4DCF83E00E94F2
:103C5000CA1C49CF82E00E94CA1C45CF0E94761C34
:103C6000803309F486C192E08091C00087FFFCCFC9
:103C70008091C6009923D9F29150F6CF81E00E943D
:103C8000CA1C31CF0E94761C809309020E94761CC8
:103C90008093080280910C028E7F80930C020E9418
:103CA000761C853429F480910C02816080930C028B
:103CB0008091080290910902892B89F000E010E0C0
:103CC0000E94761CF801E85FFE4F80830F5F1F4F54
:103CD00080910802909109020817190788F30E9441
:103CE000761C803209F029CF80910C0280FFD1C070
:103CF0004091060150910701440F551F5093070151
:103D000040930601A0910802B09109021097C9F0F2
:103D1000E8E0F1E09A01BD016E0F7F1FF999FECF37
:103D200032BD21BD819180BDFA9AF99A2F5F3F4F34
:103D3000E617F70799F74A0F5B1F50930701409367
:103D400006018091C00085FFFCCFF092C6008091F3
:103D5000C00085FFFCCFB092C600C5CE80E10E94B6
:103D6000CA1CC1CE0E94761C809309020E94761C58
:103D7000809308028091060190910701880F991F96
:103D800090930701809306010E94761C853409F404
:103D90007AC080910C028E7F80930C020E94761C68
:103DA000803209F0A0CE8091C00085FFFCCFF09258
:103DB000C600A0910802B09109021097B9F1809154
:103DC0000C02182F1170082F0270E0910601F0917B
:103DD00007019F012F5F3F4FB90140E050E01123E1
:103DE000B1F4002339F494918091C00085FFFCCF99
:103DF0009093C6004F5F5F4FCB010196F9014A17C0
:103E00005B0780F4BC012F5F3F4F112351F3F999F9
:103E1000FECFF2BDE1BDF89A90B58091C00085FF5C
:103E2000FCCFE6CF70930701609306018091C0003C
:103E300085FDD9CE8091C00085FFF8CFD4CE0E94F9
:103E4000761C803209F079CE8091C00085FFFCCFCE
:103E5000F092C6008091C00085FFFCCFE092C600C2
:103E60008091C00085FFFCCFD092C6008091C00039
:103E700085FFFCCFC092C6008091C00085FFFCCFBB
:103E8000B092C60030CE80910C02816080930C020B
:103E900085CF809107018823880F880B8A21809322
:103EA0000B028091060190910701880F991F909352
:103EB0000701809306018091080280FF09C080916C
:103EC00008029091090201969093090280930802DA
:103ED000F894F999FECF1127E0910601F0910701BE
:103EE000C8E0D1E08091080290910902103091F46D
:103EF0000091570001700130D9F303E0009357009F
:103F0000E8950091570001700130D9F301E1009369
:103F10005700E89509901990009157000170013001
:103F2000D9F301E000935700E8951395103498F009
:103F300011270091570001700130D9F305E000937B
:103F40005700E8950091570001700130D9F301E165
:103F500000935700E8953296029709F0C7CF1030CA
:103F600011F00296E5CF11248091C00085FFE9CEC3
:103F7000ECCE0E94761C0E94761C182F0E94761CA4
:103F8000112351F0113021F086E00E94CA1CABCD04
:103F900084E90E94CA1CA7CD8EE10E94CA1CA3CD51
:043FA000F894FFCFC3
:023FA40080009B
:0400000300003800C1
:00000001FF
